{
  "contractName": "CryptoRobotsCore",
  "abi": [
    {
      "inputs": [
        {
          "internalType": "string",
          "name": "_name",
          "type": "string"
        },
        {
          "internalType": "string",
          "name": "_symbol",
          "type": "string"
        },
        {
          "internalType": "string",
          "name": "_baseURI",
          "type": "string"
        }
      ],
      "stateMutability": "nonpayable",
      "type": "constructor"
    },
    {
      "anonymous": false,
      "inputs": [
        {
          "indexed": true,
          "internalType": "address",
          "name": "_owner",
          "type": "address"
        },
        {
          "indexed": true,
          "internalType": "address",
          "name": "_approved",
          "type": "address"
        },
        {
          "indexed": true,
          "internalType": "uint256",
          "name": "_tokenId",
          "type": "uint256"
        }
      ],
      "name": "Approval",
      "type": "event"
    },
    {
      "anonymous": false,
      "inputs": [
        {
          "indexed": true,
          "internalType": "address",
          "name": "_owner",
          "type": "address"
        },
        {
          "indexed": true,
          "internalType": "address",
          "name": "_operator",
          "type": "address"
        },
        {
          "indexed": false,
          "internalType": "bool",
          "name": "_approved",
          "type": "bool"
        }
      ],
      "name": "ApprovalForAll",
      "type": "event"
    },
    {
      "anonymous": false,
      "inputs": [
        {
          "indexed": true,
          "internalType": "address",
          "name": "previousOwner",
          "type": "address"
        },
        {
          "indexed": true,
          "internalType": "address",
          "name": "newOwner",
          "type": "address"
        }
      ],
      "name": "OwnershipTransferred",
      "type": "event"
    },
    {
      "anonymous": false,
      "inputs": [
        {
          "indexed": true,
          "internalType": "address",
          "name": "_from",
          "type": "address"
        },
        {
          "indexed": true,
          "internalType": "address",
          "name": "_to",
          "type": "address"
        },
        {
          "indexed": true,
          "internalType": "uint256",
          "name": "_tokenId",
          "type": "uint256"
        }
      ],
      "name": "Transfer",
      "type": "event"
    },
    {
      "inputs": [],
      "name": "CANNOT_TRANSFER_TO_ZERO_ADDRESS",
      "outputs": [
        {
          "internalType": "string",
          "name": "",
          "type": "string"
        }
      ],
      "stateMutability": "view",
      "type": "function"
    },
    {
      "inputs": [],
      "name": "NOT_CURRENT_OWNER",
      "outputs": [
        {
          "internalType": "string",
          "name": "",
          "type": "string"
        }
      ],
      "stateMutability": "view",
      "type": "function"
    },
    {
      "inputs": [
        {
          "internalType": "address",
          "name": "_approved",
          "type": "address"
        },
        {
          "internalType": "uint256",
          "name": "_tokenId",
          "type": "uint256"
        }
      ],
      "name": "approve",
      "outputs": [],
      "stateMutability": "nonpayable",
      "type": "function"
    },
    {
      "inputs": [
        {
          "internalType": "address",
          "name": "_owner",
          "type": "address"
        }
      ],
      "name": "balanceOf",
      "outputs": [
        {
          "internalType": "uint256",
          "name": "",
          "type": "uint256"
        }
      ],
      "stateMutability": "view",
      "type": "function"
    },
    {
      "inputs": [
        {
          "internalType": "uint256",
          "name": "_tokenId",
          "type": "uint256"
        }
      ],
      "name": "getApproved",
      "outputs": [
        {
          "internalType": "address",
          "name": "",
          "type": "address"
        }
      ],
      "stateMutability": "view",
      "type": "function"
    },
    {
      "inputs": [
        {
          "internalType": "address",
          "name": "_owner",
          "type": "address"
        },
        {
          "internalType": "address",
          "name": "_operator",
          "type": "address"
        }
      ],
      "name": "isApprovedForAll",
      "outputs": [
        {
          "internalType": "bool",
          "name": "",
          "type": "bool"
        }
      ],
      "stateMutability": "view",
      "type": "function"
    },
    {
      "inputs": [],
      "name": "name",
      "outputs": [
        {
          "internalType": "string",
          "name": "_name",
          "type": "string"
        }
      ],
      "stateMutability": "view",
      "type": "function"
    },
    {
      "inputs": [],
      "name": "owner",
      "outputs": [
        {
          "internalType": "address",
          "name": "",
          "type": "address"
        }
      ],
      "stateMutability": "view",
      "type": "function"
    },
    {
      "inputs": [
        {
          "internalType": "uint256",
          "name": "_tokenId",
          "type": "uint256"
        }
      ],
      "name": "ownerOf",
      "outputs": [
        {
          "internalType": "address",
          "name": "_owner",
          "type": "address"
        }
      ],
      "stateMutability": "view",
      "type": "function"
    },
    {
      "inputs": [
        {
          "internalType": "address",
          "name": "_from",
          "type": "address"
        },
        {
          "internalType": "address",
          "name": "_to",
          "type": "address"
        },
        {
          "internalType": "uint256",
          "name": "_tokenId",
          "type": "uint256"
        }
      ],
      "name": "safeTransferFrom",
      "outputs": [],
      "stateMutability": "nonpayable",
      "type": "function"
    },
    {
      "inputs": [
        {
          "internalType": "address",
          "name": "_from",
          "type": "address"
        },
        {
          "internalType": "address",
          "name": "_to",
          "type": "address"
        },
        {
          "internalType": "uint256",
          "name": "_tokenId",
          "type": "uint256"
        },
        {
          "internalType": "bytes",
          "name": "_data",
          "type": "bytes"
        }
      ],
      "name": "safeTransferFrom",
      "outputs": [],
      "stateMutability": "nonpayable",
      "type": "function"
    },
    {
      "inputs": [
        {
          "internalType": "address",
          "name": "_operator",
          "type": "address"
        },
        {
          "internalType": "bool",
          "name": "_approved",
          "type": "bool"
        }
      ],
      "name": "setApprovalForAll",
      "outputs": [],
      "stateMutability": "nonpayable",
      "type": "function"
    },
    {
      "inputs": [
        {
          "internalType": "bytes4",
          "name": "_interfaceID",
          "type": "bytes4"
        }
      ],
      "name": "supportsInterface",
      "outputs": [
        {
          "internalType": "bool",
          "name": "",
          "type": "bool"
        }
      ],
      "stateMutability": "view",
      "type": "function"
    },
    {
      "inputs": [],
      "name": "symbol",
      "outputs": [
        {
          "internalType": "string",
          "name": "_symbol",
          "type": "string"
        }
      ],
      "stateMutability": "view",
      "type": "function"
    },
    {
      "inputs": [
        {
          "internalType": "uint256",
          "name": "_index",
          "type": "uint256"
        }
      ],
      "name": "tokenByIndex",
      "outputs": [
        {
          "internalType": "uint256",
          "name": "",
          "type": "uint256"
        }
      ],
      "stateMutability": "view",
      "type": "function"
    },
    {
      "inputs": [
        {
          "internalType": "address",
          "name": "_owner",
          "type": "address"
        },
        {
          "internalType": "uint256",
          "name": "_index",
          "type": "uint256"
        }
      ],
      "name": "tokenOfOwnerByIndex",
      "outputs": [
        {
          "internalType": "uint256",
          "name": "",
          "type": "uint256"
        }
      ],
      "stateMutability": "view",
      "type": "function"
    },
    {
      "inputs": [
        {
          "internalType": "uint256",
          "name": "_tokenId",
          "type": "uint256"
        }
      ],
      "name": "tokenURI",
      "outputs": [
        {
          "internalType": "string",
          "name": "",
          "type": "string"
        }
      ],
      "stateMutability": "view",
      "type": "function"
    },
    {
      "inputs": [],
      "name": "totalSupply",
      "outputs": [
        {
          "internalType": "uint256",
          "name": "",
          "type": "uint256"
        }
      ],
      "stateMutability": "view",
      "type": "function"
    },
    {
      "inputs": [
        {
          "internalType": "address",
          "name": "_from",
          "type": "address"
        },
        {
          "internalType": "address",
          "name": "_to",
          "type": "address"
        },
        {
          "internalType": "uint256",
          "name": "_tokenId",
          "type": "uint256"
        }
      ],
      "name": "transferFrom",
      "outputs": [],
      "stateMutability": "nonpayable",
      "type": "function"
    },
    {
      "inputs": [
        {
          "internalType": "address",
          "name": "_newOwner",
          "type": "address"
        }
      ],
      "name": "transferOwnership",
      "outputs": [],
      "stateMutability": "nonpayable",
      "type": "function"
    },
    {
      "inputs": [],
      "name": "mint",
      "outputs": [],
      "stateMutability": "nonpayable",
      "type": "function"
    },
    {
      "inputs": [],
      "name": "getAllRobots",
      "outputs": [
        {
          "components": [
            {
              "internalType": "uint256",
              "name": "id",
              "type": "uint256"
            },
            {
              "internalType": "uint256",
              "name": "generation",
              "type": "uint256"
            },
            {
              "internalType": "bytes",
              "name": "gene",
              "type": "bytes"
            },
            {
              "internalType": "bool",
              "name": "active",
              "type": "bool"
            }
          ],
          "internalType": "struct CryptoRobotsCore.Robot[]",
          "name": "",
          "type": "tuple[]"
        }
      ],
      "stateMutability": "view",
      "type": "function"
    },
    {
      "inputs": [
        {
          "internalType": "uint256",
          "name": "_robotId",
          "type": "uint256"
        }
      ],
      "name": "getRobotByIndex",
      "outputs": [
        {
          "components": [
            {
              "internalType": "uint256",
              "name": "id",
              "type": "uint256"
            },
            {
              "internalType": "uint256",
              "name": "generation",
              "type": "uint256"
            },
            {
              "internalType": "bytes",
              "name": "gene",
              "type": "bytes"
            },
            {
              "internalType": "bool",
              "name": "active",
              "type": "bool"
            }
          ],
          "internalType": "struct CryptoRobotsCore.Robot",
          "name": "",
          "type": "tuple"
        }
      ],
      "stateMutability": "view",
      "type": "function"
    },
    {
      "inputs": [
        {
          "internalType": "address",
          "name": "owner",
          "type": "address"
        }
      ],
      "name": "getAllRobotsOf",
      "outputs": [
        {
          "components": [
            {
              "internalType": "uint256",
              "name": "id",
              "type": "uint256"
            },
            {
              "internalType": "uint256",
              "name": "generation",
              "type": "uint256"
            },
            {
              "internalType": "bytes",
              "name": "gene",
              "type": "bytes"
            },
            {
              "internalType": "bool",
              "name": "active",
              "type": "bool"
            }
          ],
          "internalType": "struct CryptoRobotsCore.Robot[]",
          "name": "",
          "type": "tuple[]"
        }
      ],
      "stateMutability": "view",
      "type": "function"
    },
    {
      "inputs": [
        {
          "internalType": "uint256",
          "name": "robot1Id",
          "type": "uint256"
        },
        {
          "internalType": "uint256",
          "name": "robot2Id",
          "type": "uint256"
        }
      ],
      "name": "breed",
      "outputs": [],
      "stateMutability": "nonpayable",
      "type": "function"
    },
    {
      "inputs": [
        {
          "internalType": "uint256",
          "name": "_tokenId",
          "type": "uint256"
        }
      ],
      "name": "burn",
      "outputs": [],
      "stateMutability": "nonpayable",
      "type": "function"
    }
  ],
  "bytecode": "0x60806040523480156200001157600080fd5b50604051620049b1380380620049b1833981810160405281019062000037919062000332565b60016000806301ffc9a760e01b7bffffffffffffffffffffffffffffffffffffffffffffffffffffffff1916815260200190815260200160002060006101000a81548160ff02191690831515021790555060016000806380ac58cd60e01b7bffffffffffffffffffffffffffffffffffffffffffffffffffffffff1916815260200190815260200160002060006101000a81548160ff021916908315150217905550600160008063780e9d6360e01b7bffffffffffffffffffffffffffffffffffffffffffffffffffffffff1916815260200190815260200160002060006101000a81548160ff0219169083151502179055506001600080635b5e139f60e01b7bffffffffffffffffffffffffffffffffffffffffffffffffffffffff1916815260200190815260200160002060006101000a81548160ff02191690831515021790555033600c60006101000a81548173ffffffffffffffffffffffffffffffffffffffff021916908373ffffffffffffffffffffffffffffffffffffffff1602179055508260099080519060200190620001d492919062000210565b5081600a9080519060200190620001ed92919062000210565b5080600b90805190602001906200020692919062000210565b5050505062000504565b8280546200021e9062000470565b90600052602060002090601f0160209004810192826200024257600085556200028e565b82601f106200025d57805160ff19168380011785556200028e565b828001600101855582156200028e579182015b828111156200028d57825182559160200191906001019062000270565b5b5090506200029d9190620002a1565b5090565b5b80821115620002bc576000816000905550600101620002a2565b5090565b6000620002d7620002d18462000407565b620003d3565b905082815260208101848484011115620002f057600080fd5b620002fd8482856200043a565b509392505050565b600082601f8301126200031757600080fd5b815162000329848260208601620002c0565b91505092915050565b6000806000606084860312156200034857600080fd5b600084015167ffffffffffffffff8111156200036357600080fd5b620003718682870162000305565b935050602084015167ffffffffffffffff8111156200038f57600080fd5b6200039d8682870162000305565b925050604084015167ffffffffffffffff811115620003bb57600080fd5b620003c98682870162000305565b9150509250925092565b6000604051905081810181811067ffffffffffffffff82111715620003fd57620003fc620004d5565b5b8060405250919050565b600067ffffffffffffffff821115620004255762000424620004d5565b5b601f19601f8301169050602081019050919050565b60005b838110156200045a5780820151818401526020810190506200043d565b838111156200046a576000848401525b50505050565b600060028204905060018216806200048957607f821691505b60208210811415620004a0576200049f620004a6565b5b50919050565b7f4e487b7100000000000000000000000000000000000000000000000000000000600052602260045260246000fd5b7f4e487b7100000000000000000000000000000000000000000000000000000000600052604160045260246000fd5b61449d80620005146000396000f3fe608060405234801561001057600080fd5b506004361061018e5760003560e01c8063860d248a116100de578063b88d4fde11610097578063ddc9cecb11610071578063ddc9cecb146104a7578063e985e9c5146104c5578063f2fde38b146104f5578063f3fe3bc3146105115761018e565b8063b88d4fde1461043f578063c87b56dd1461045b578063d9ecad7b1461048b5761018e565b8063860d248a146103695780638da5cb5b1461038757806395d89b41146103a55780639a411ac2146103c3578063a1e95bd7146103f3578063a22cb465146104235761018e565b806323b872dd1161014b57806342966c681161012557806342966c68146102bd5780634f6ccce7146102d95780636352211e1461030957806370a08231146103395761018e565b806323b872dd146102555780632f745c591461027157806342842e0e146102a15761018e565b806301ffc9a71461019357806306fdde03146101c3578063081812fc146101e1578063095ea7b3146102115780631249c58b1461022d57806318160ddd14610237575b600080fd5b6101ad60048036038101906101a89190613be0565b61052f565b6040516101ba919061406a565b60405180910390f35b6101cb610596565b6040516101d89190614085565b60405180910390f35b6101fb60048036038101906101f69190613c32565b610628565b6040516102089190613fe1565b60405180910390f35b61022b60048036038101906102269190613ba4565b610743565b005b610235610b26565b005b61023f610cd3565b60405161024c91906140c9565b60405180910390f35b61026f600480360381019061026a9190613a99565b610ce0565b005b61028b60048036038101906102869190613ba4565b611132565b60405161029891906140c9565b60405180910390f35b6102bb60048036038101906102b69190613a99565b61127b565b005b6102d760048036038101906102d29190613c32565b61129b565b005b6102f360048036038101906102ee9190613c32565b611370565b60405161030091906140c9565b60405180910390f35b610323600480360381019061031e9190613c32565b61143e565b6040516103309190613fe1565b60405180910390f35b610353600480360381019061034e9190613a34565b611524565b60405161036091906140c9565b60405180910390f35b6103716115de565b60405161037e9190614085565b60405180910390f35b61038f611617565b60405161039c9190613fe1565b60405180910390f35b6103ad61163d565b6040516103ba9190614085565b60405180910390f35b6103dd60048036038101906103d89190613c32565b6116cf565b6040516103ea91906140a7565b60405180910390f35b61040d60048036038101906104089190613a34565b6117bd565b60405161041a9190614048565b60405180910390f35b61043d60048036038101906104389190613b68565b611a63565b005b61045960048036038101906104549190613ae8565b611b60565b005b61047560048036038101906104709190613c32565b611bb7565b6040516104829190614085565b60405180910390f35b6104a560048036038101906104a09190613c5b565b611cc1565b005b6104af6120f0565b6040516104bc9190614048565b60405180910390f35b6104df60048036038101906104da9190613a5d565b6122c3565b6040516104ec919061406a565b60405180910390f35b61050f600480360381019061050a9190613a34565b612357565b005b610519612589565b6040516105269190614085565b60405180910390f35b6000806000837bffffffffffffffffffffffffffffffffffffffffffffffffffffffff19167bffffffffffffffffffffffffffffffffffffffffffffffffffffffff1916815260200190815260200160002060009054906101000a900460ff169050919050565b6060600980546105a5906142b7565b80601f01602080910402602001604051908101604052809291908181526020018280546105d1906142b7565b801561061e5780601f106105f35761010080835404028352916020019161061e565b820191906000526020600020905b81548152906001019060200180831161060157829003601f168201915b5050505050905090565b600081600073ffffffffffffffffffffffffffffffffffffffff166001600083815260200190815260200160002060009054906101000a900473ffffffffffffffffffffffffffffffffffffffff1673ffffffffffffffffffffffffffffffffffffffff1614156040518060400160405280600681526020017f303033303032000000000000000000000000000000000000000000000000000081525090610706576040517f08c379a00000000000000000000000000000000000000000000000000000000081526004016106fd9190614085565b60405180910390fd5b506002600084815260200190815260200160002060009054906101000a900473ffffffffffffffffffffffffffffffffffffffff16915050919050565b8060006001600083815260200190815260200160002060009054906101000a900473ffffffffffffffffffffffffffffffffffffffff1690503373ffffffffffffffffffffffffffffffffffffffff168173ffffffffffffffffffffffffffffffffffffffff16148061083c5750600460008273ffffffffffffffffffffffffffffffffffffffff1673ffffffffffffffffffffffffffffffffffffffff16815260200190815260200160002060003373ffffffffffffffffffffffffffffffffffffffff1673ffffffffffffffffffffffffffffffffffffffff16815260200190815260200160002060009054906101000a900460ff165b6040518060400160405280600681526020017f3030333030330000000000000000000000000000000000000000000000000000815250906108b3576040517f08c379a00000000000000000000000000000000000000000000000000000000081526004016108aa9190614085565b60405180910390fd5b5082600073ffffffffffffffffffffffffffffffffffffffff166001600083815260200190815260200160002060009054906101000a900473ffffffffffffffffffffffffffffffffffffffff1673ffffffffffffffffffffffffffffffffffffffff1614156040518060400160405280600681526020017f303033303032000000000000000000000000000000000000000000000000000081525090610990576040517f08c379a00000000000000000000000000000000000000000000000000000000081526004016109879190614085565b60405180910390fd5b5060006001600086815260200190815260200160002060009054906101000a900473ffffffffffffffffffffffffffffffffffffffff1690508073ffffffffffffffffffffffffffffffffffffffff168673ffffffffffffffffffffffffffffffffffffffff1614156040518060400160405280600681526020017f303033303038000000000000000000000000000000000000000000000000000081525090610a70576040517f08c379a0000000000000000000000000000000000000000000000000000000008152600401610a679190614085565b60405180910390fd5b50856002600087815260200190815260200160002060006101000a81548173ffffffffffffffffffffffffffffffffffffffff021916908373ffffffffffffffffffffffffffffffffffffffff160217905550848673ffffffffffffffffffffffffffffffffffffffff168273ffffffffffffffffffffffffffffffffffffffff167f8c5be1e5ebec7d5bd14f71427d1e84f3dd0314c0f7b2291e5b200ac8c7c3b92560405160405180910390a4505050505050565b600c60009054906101000a900473ffffffffffffffffffffffffffffffffffffffff1673ffffffffffffffffffffffffffffffffffffffff163373ffffffffffffffffffffffffffffffffffffffff16146040518060400160405280600681526020017f303138303031000000000000000000000000000000000000000000000000000081525090610bee576040517f08c379a0000000000000000000000000000000000000000000000000000000008152600401610be59190614085565b60405180910390fd5b50610c1d600c60009054906101000a900473ffffffffffffffffffffffffffffffffffffffff16600e546125c2565b6040518060800160405280600e54815260200160018152602001610c44633b9aca006125d0565b815260200160011515815250600d6000600e54815260200190815260200160002060008201518160000155602082015181600101556040820151816002019080519060200190610c959291906138b4565b5060608201518160030160006101000a81548160ff021916908315150217905550905050600e6000815480929190610ccc906142e9565b9190505550565b6000600580549050905090565b8060006001600083815260200190815260200160002060009054906101000a900473ffffffffffffffffffffffffffffffffffffffff1690503373ffffffffffffffffffffffffffffffffffffffff168173ffffffffffffffffffffffffffffffffffffffff161480610db157503373ffffffffffffffffffffffffffffffffffffffff166002600084815260200190815260200160002060009054906101000a900473ffffffffffffffffffffffffffffffffffffffff1673ffffffffffffffffffffffffffffffffffffffff16145b80610e425750600460008273ffffffffffffffffffffffffffffffffffffffff1673ffffffffffffffffffffffffffffffffffffffff16815260200190815260200160002060003373ffffffffffffffffffffffffffffffffffffffff1673ffffffffffffffffffffffffffffffffffffffff16815260200190815260200160002060009054906101000a900460ff165b6040518060400160405280600681526020017f303033303034000000000000000000000000000000000000000000000000000081525090610eb9576040517f08c379a0000000000000000000000000000000000000000000000000000000008152600401610eb09190614085565b60405180910390fd5b5082600073ffffffffffffffffffffffffffffffffffffffff166001600083815260200190815260200160002060009054906101000a900473ffffffffffffffffffffffffffffffffffffffff1673ffffffffffffffffffffffffffffffffffffffff1614156040518060400160405280600681526020017f303033303032000000000000000000000000000000000000000000000000000081525090610f96576040517f08c379a0000000000000000000000000000000000000000000000000000000008152600401610f8d9190614085565b60405180910390fd5b5060006001600086815260200190815260200160002060009054906101000a900473ffffffffffffffffffffffffffffffffffffffff1690508673ffffffffffffffffffffffffffffffffffffffff168173ffffffffffffffffffffffffffffffffffffffff16146040518060400160405280600681526020017f303033303037000000000000000000000000000000000000000000000000000081525090611075576040517f08c379a000000000000000000000000000000000000000000000000000000000815260040161106c9190614085565b60405180910390fd5b50600073ffffffffffffffffffffffffffffffffffffffff168673ffffffffffffffffffffffffffffffffffffffff1614156040518060400160405280600681526020017f30303330303100000000000000000000000000000000000000000000000000008152509061111e576040517f08c379a00000000000000000000000000000000000000000000000000000000081526004016111159190614085565b60405180910390fd5b506111298686612635565b50505050505050565b6000600760008473ffffffffffffffffffffffffffffffffffffffff1673ffffffffffffffffffffffffffffffffffffffff1681526020019081526020016000208054905082106040518060400160405280600681526020017f3030353030370000000000000000000000000000000000000000000000000000815250906111f0576040517f08c379a00000000000000000000000000000000000000000000000000000000081526004016111e79190614085565b60405180910390fd5b50600760008473ffffffffffffffffffffffffffffffffffffffff1673ffffffffffffffffffffffffffffffffffffffff1681526020019081526020016000208281548110611268577f4e487b7100000000000000000000000000000000000000000000000000000000600052603260045260246000fd5b9060005260206000200154905092915050565b611296838383604051806020016040528060008152506126ea565b505050565b600c60009054906101000a900473ffffffffffffffffffffffffffffffffffffffff1673ffffffffffffffffffffffffffffffffffffffff163373ffffffffffffffffffffffffffffffffffffffff16146040518060400160405280600681526020017f303138303031000000000000000000000000000000000000000000000000000081525090611363576040517f08c379a000000000000000000000000000000000000000000000000000000000815260040161135a9190614085565b60405180910390fd5b5061136d81612cb8565b50565b600060058054905082106040518060400160405280600681526020017f3030353030370000000000000000000000000000000000000000000000000000815250906113f1576040517f08c379a00000000000000000000000000000000000000000000000000000000081526004016113e89190614085565b60405180910390fd5b506005828154811061142c577f4e487b7100000000000000000000000000000000000000000000000000000000600052603260045260246000fd5b90600052602060002001549050919050565b60006001600083815260200190815260200160002060009054906101000a900473ffffffffffffffffffffffffffffffffffffffff169050600073ffffffffffffffffffffffffffffffffffffffff168173ffffffffffffffffffffffffffffffffffffffff1614156040518060400160405280600681526020017f30303330303200000000000000000000000000000000000000000000000000008152509061151e576040517f08c379a00000000000000000000000000000000000000000000000000000000081526004016115159190614085565b60405180910390fd5b50919050565b60008073ffffffffffffffffffffffffffffffffffffffff168273ffffffffffffffffffffffffffffffffffffffff1614156040518060400160405280600681526020017f3030333030310000000000000000000000000000000000000000000000000000815250906115cd576040517f08c379a00000000000000000000000000000000000000000000000000000000081526004016115c49190614085565b60405180910390fd5b506115d782612cf3565b9050919050565b6040518060400160405280600681526020017f303138303032000000000000000000000000000000000000000000000000000081525081565b600c60009054906101000a900473ffffffffffffffffffffffffffffffffffffffff1681565b6060600a805461164c906142b7565b80601f0160208091040260200160405190810160405280929190818152602001828054611678906142b7565b80156116c55780601f1061169a576101008083540402835291602001916116c5565b820191906000526020600020905b8154815290600101906020018083116116a857829003601f168201915b5050505050905090565b6116d761393a565b600d60008381526020019081526020016000206040518060800160405290816000820154815260200160018201548152602001600282018054611719906142b7565b80601f0160208091040260200160405190810160405280929190818152602001828054611745906142b7565b80156117925780601f1061176757610100808354040283529160200191611792565b820191906000526020600020905b81548152906001019060200180831161177557829003601f168201915b505050505081526020016003820160009054906101000a900460ff1615151515815250509050919050565b60606000600760008473ffffffffffffffffffffffffffffffffffffffff1673ffffffffffffffffffffffffffffffffffffffff16815260200190815260200160002080548060200260200160405190810160405280929190818152602001828054801561184a57602002820191906000526020600020905b815481526020019060010190808311611836575b505050505090506000815167ffffffffffffffff811115611894577f4e487b7100000000000000000000000000000000000000000000000000000000600052604160045260246000fd5b6040519080825280602002602001820160405280156118cd57816020015b6118ba61393a565b8152602001906001900390816118b25790505b50905060005b8251811015611a58576000838281518110611917577f4e487b7100000000000000000000000000000000000000000000000000000000600052603260045260246000fd5b60200260200101519050600d60008281526020019081526020016000206040518060800160405290816000820154815260200160018201548152602001600282018054611963906142b7565b80601f016020809104026020016040519081016040528092919081815260200182805461198f906142b7565b80156119dc5780601f106119b1576101008083540402835291602001916119dc565b820191906000526020600020905b8154815290600101906020018083116119bf57829003601f168201915b505050505081526020016003820160009054906101000a900460ff161515151581525050838381518110611a39577f4e487b7100000000000000000000000000000000000000000000000000000000600052603260045260246000fd5b6020026020010181905250508080611a50906142e9565b9150506118d3565b508092505050919050565b80600460003373ffffffffffffffffffffffffffffffffffffffff1673ffffffffffffffffffffffffffffffffffffffff16815260200190815260200160002060008473ffffffffffffffffffffffffffffffffffffffff1673ffffffffffffffffffffffffffffffffffffffff16815260200190815260200160002060006101000a81548160ff0219169083151502179055508173ffffffffffffffffffffffffffffffffffffffff163373ffffffffffffffffffffffffffffffffffffffff167f17307eab39ab6107e8899845ad3d59bd9653f200f220920489ca2b5937696c3183604051611b54919061406a565b60405180910390a35050565b611bb085858585858080601f016020809104026020016040519081016040528093929190818152602001838380828437600081840152601f19601f820116905080830192505050505050506126ea565b5050505050565b606081600073ffffffffffffffffffffffffffffffffffffffff166001600083815260200190815260200160002060009054906101000a900473ffffffffffffffffffffffffffffffffffffffff1673ffffffffffffffffffffffffffffffffffffffff1614156040518060400160405280600681526020017f303033303032000000000000000000000000000000000000000000000000000081525090611c95576040517f08c379a0000000000000000000000000000000000000000000000000000000008152600401611c8c9190614085565b60405180910390fd5b50600b83604051602001611caa929190613f72565b604051602081830303815290604052915050919050565b81600073ffffffffffffffffffffffffffffffffffffffff166001600083815260200190815260200160002060009054906101000a900473ffffffffffffffffffffffffffffffffffffffff1673ffffffffffffffffffffffffffffffffffffffff1614156040518060400160405280600681526020017f303033303032000000000000000000000000000000000000000000000000000081525090611d9d576040517f08c379a0000000000000000000000000000000000000000000000000000000008152600401611d949190614085565b60405180910390fd5b5081600073ffffffffffffffffffffffffffffffffffffffff166001600083815260200190815260200160002060009054906101000a900473ffffffffffffffffffffffffffffffffffffffff1673ffffffffffffffffffffffffffffffffffffffff1614156040518060400160405280600681526020017f303033303032000000000000000000000000000000000000000000000000000081525090611e7a576040517f08c379a0000000000000000000000000000000000000000000000000000000008152600401611e719190614085565b60405180910390fd5b5060006001600086815260200190815260200160002060009054906101000a900473ffffffffffffffffffffffffffffffffffffffff16905060006001600086815260200190815260200160002060009054906101000a900473ffffffffffffffffffffffffffffffffffffffff1690503373ffffffffffffffffffffffffffffffffffffffff168273ffffffffffffffffffffffffffffffffffffffff16148015611f5157503373ffffffffffffffffffffffffffffffffffffffff168173ffffffffffffffffffffffffffffffffffffffff16145b6040518060400160405280600681526020017f303033303037000000000000000000000000000000000000000000000000000081525090611fc8576040517f08c379a0000000000000000000000000000000000000000000000000000000008152600401611fbf9190614085565b60405180910390fd5b506000600d600088815260200190815260200160002090506000600d6000898152602001908152602001600020905060008160010154836001015411612012578160010154612018565b82600101545b905061202633600e546125c2565b6040518060800160405280600e5481526020016001836120469190614186565b8152602001612058633b9aca006125d0565b815260200160011515815250600d6000600e548152602001908152602001600020600082015181600001556020820151816001015560408201518160020190805190602001906120a99291906138b4565b5060608201518160030160006101000a81548160ff021916908315150217905550905050600e60008154809291906120e0906142e9565b9190505550505050505050505050565b6060600060058054905067ffffffffffffffff811115612139577f4e487b7100000000000000000000000000000000000000000000000000000000600052604160045260246000fd5b60405190808252806020026020018201604052801561217257816020015b61215f61393a565b8152602001906001900390816121575790505b50905060005b6005805490508110156122bb57600d600082815260200190815260200160002060405180608001604052908160008201548152602001600182015481526020016002820180546121c7906142b7565b80601f01602080910402602001604051908101604052809291908181526020018280546121f3906142b7565b80156122405780601f1061221557610100808354040283529160200191612240565b820191906000526020600020905b81548152906001019060200180831161222357829003601f168201915b505050505081526020016003820160009054906101000a900460ff16151515158152505082828151811061229d577f4e487b7100000000000000000000000000000000000000000000000000000000600052603260045260246000fd5b602002602001018190525080806122b3906142e9565b915050612178565b508091505090565b6000600460008473ffffffffffffffffffffffffffffffffffffffff1673ffffffffffffffffffffffffffffffffffffffff16815260200190815260200160002060008373ffffffffffffffffffffffffffffffffffffffff1673ffffffffffffffffffffffffffffffffffffffff16815260200190815260200160002060009054906101000a900460ff16905092915050565b600c60009054906101000a900473ffffffffffffffffffffffffffffffffffffffff1673ffffffffffffffffffffffffffffffffffffffff163373ffffffffffffffffffffffffffffffffffffffff16146040518060400160405280600681526020017f30313830303100000000000000000000000000000000000000000000000000008152509061241f576040517f08c379a00000000000000000000000000000000000000000000000000000000081526004016124169190614085565b60405180910390fd5b50600073ffffffffffffffffffffffffffffffffffffffff168173ffffffffffffffffffffffffffffffffffffffff1614156040518060400160405280600681526020017f3031383030320000000000000000000000000000000000000000000000000000815250906124c8576040517f08c379a00000000000000000000000000000000000000000000000000000000081526004016124bf9190614085565b60405180910390fd5b508073ffffffffffffffffffffffffffffffffffffffff16600c60009054906101000a900473ffffffffffffffffffffffffffffffffffffffff1673ffffffffffffffffffffffffffffffffffffffff167f8be0079c531659141344cd1fd0a4f28419497f9722a3daafe3b4186f6b6457e060405160405180910390a380600c60006101000a81548173ffffffffffffffffffffffffffffffffffffffff021916908373ffffffffffffffffffffffffffffffffffffffff16021790555050565b6040518060400160405280600681526020017f303138303031000000000000000000000000000000000000000000000000000081525081565b6125cc8282612d05565b5050565b606060008242446040516020016125e8929190613fb5565b6040516020818303038152906040528051906020012060001c61260b919061433c565b90508060405160200161261e9190613f9a565b604051602081830303815290604052915050919050565b60006001600083815260200190815260200160002060009054906101000a900473ffffffffffffffffffffffffffffffffffffffff16905061267682612d65565b6126808183612e06565b61268a8383612e14565b818373ffffffffffffffffffffffffffffffffffffffff168273ffffffffffffffffffffffffffffffffffffffff167fddf252ad1be2c89b69c2b068fc378daa952ba7f163c4a11628f55a4df523b3ef60405160405180910390a4505050565b8160006001600083815260200190815260200160002060009054906101000a900473ffffffffffffffffffffffffffffffffffffffff1690503373ffffffffffffffffffffffffffffffffffffffff168173ffffffffffffffffffffffffffffffffffffffff1614806127bb57503373ffffffffffffffffffffffffffffffffffffffff166002600084815260200190815260200160002060009054906101000a900473ffffffffffffffffffffffffffffffffffffffff1673ffffffffffffffffffffffffffffffffffffffff16145b8061284c5750600460008273ffffffffffffffffffffffffffffffffffffffff1673ffffffffffffffffffffffffffffffffffffffff16815260200190815260200160002060003373ffffffffffffffffffffffffffffffffffffffff1673ffffffffffffffffffffffffffffffffffffffff16815260200190815260200160002060009054906101000a900460ff165b6040518060400160405280600681526020017f3030333030340000000000000000000000000000000000000000000000000000815250906128c3576040517f08c379a00000000000000000000000000000000000000000000000000000000081526004016128ba9190614085565b60405180910390fd5b5083600073ffffffffffffffffffffffffffffffffffffffff166001600083815260200190815260200160002060009054906101000a900473ffffffffffffffffffffffffffffffffffffffff1673ffffffffffffffffffffffffffffffffffffffff1614156040518060400160405280600681526020017f3030333030320000000000000000000000000000000000000000000000000000815250906129a0576040517f08c379a00000000000000000000000000000000000000000000000000000000081526004016129979190614085565b60405180910390fd5b5060006001600087815260200190815260200160002060009054906101000a900473ffffffffffffffffffffffffffffffffffffffff1690508773ffffffffffffffffffffffffffffffffffffffff168173ffffffffffffffffffffffffffffffffffffffff16146040518060400160405280600681526020017f303033303037000000000000000000000000000000000000000000000000000081525090612a7f576040517f08c379a0000000000000000000000000000000000000000000000000000000008152600401612a769190614085565b60405180910390fd5b50600073ffffffffffffffffffffffffffffffffffffffff168773ffffffffffffffffffffffffffffffffffffffff1614156040518060400160405280600681526020017f303033303031000000000000000000000000000000000000000000000000000081525090612b28576040517f08c379a0000000000000000000000000000000000000000000000000000000008152600401612b1f9190614085565b60405180910390fd5b50612b338787612635565b612b528773ffffffffffffffffffffffffffffffffffffffff16612e22565b15612cae5760008773ffffffffffffffffffffffffffffffffffffffff1663150b7a02338b8a8a6040518563ffffffff1660e01b8152600401612b989493929190613ffc565b602060405180830381600087803b158015612bb257600080fd5b505af1158015612bc6573d6000803e3d6000fd5b505050506040513d601f19601f82011682018060405250810190612bea9190613c09565b905063150b7a0260e01b7bffffffffffffffffffffffffffffffffffffffffffffffffffffffff1916817bffffffffffffffffffffffffffffffffffffffffffffffffffffffff1916146040518060400160405280600681526020017f303033303035000000000000000000000000000000000000000000000000000081525090612cab576040517f08c379a0000000000000000000000000000000000000000000000000000000008152600401612ca29190614085565b60405180910390fd5b50505b5050505050505050565b6000600d600083815260200190815260200160002060030160006101000a81548160ff021916908315150217905550612cf081612e6d565b50565b6000612cfe82612fbb565b9050919050565b612d0f8282613007565b60058190806001815401808255809150506001900390600052602060002001600090919091909150556001600580549050612d4a91906141dc565b60066000838152602001908152602001600020819055505050565b600073ffffffffffffffffffffffffffffffffffffffff166002600083815260200190815260200160002060009054906101000a900473ffffffffffffffffffffffffffffffffffffffff1673ffffffffffffffffffffffffffffffffffffffff1614612e03576002600082815260200190815260200160002060006101000a81549073ffffffffffffffffffffffffffffffffffffffff02191690555b50565b612e1082826131f5565b5050565b612e1e828261352e565b5050565b60008060007fc5d2460186f7233c927e7db2dcc703c0e500b653ca82273b7bfad8045d85a47060001b9050833f91506000801b8214158015612e645750808214155b92505050919050565b612e768161372b565b60006006600083815260200190815260200160002054905060006001600580549050612ea291906141dc565b9050600060058281548110612ee0577f4e487b7100000000000000000000000000000000000000000000000000000000600052603260045260246000fd5b906000526020600020015490508060058481548110612f28577f4e487b7100000000000000000000000000000000000000000000000000000000600052603260045260246000fd5b90600052602060002001819055506005805480612f6e577f4e487b7100000000000000000000000000000000000000000000000000000000600052603160045260246000fd5b600190038181906000526020600020016000905590558260066000838152602001908152602001600020819055506000600660008681526020019081526020016000208190555050505050565b6000600760008373ffffffffffffffffffffffffffffffffffffffff1673ffffffffffffffffffffffffffffffffffffffff168152602001908152602001600020805490509050919050565b600073ffffffffffffffffffffffffffffffffffffffff168273ffffffffffffffffffffffffffffffffffffffff1614156040518060400160405280600681526020017f3030333030310000000000000000000000000000000000000000000000000000815250906130af576040517f08c379a00000000000000000000000000000000000000000000000000000000081526004016130a69190614085565b60405180910390fd5b50600073ffffffffffffffffffffffffffffffffffffffff166001600083815260200190815260200160002060009054906101000a900473ffffffffffffffffffffffffffffffffffffffff1673ffffffffffffffffffffffffffffffffffffffff16146040518060400160405280600681526020017f30303330303600000000000000000000000000000000000000000000000000008152509061318a576040517f08c379a00000000000000000000000000000000000000000000000000000000081526004016131819190614085565b60405180910390fd5b506131958282612e14565b808273ffffffffffffffffffffffffffffffffffffffff16600073ffffffffffffffffffffffffffffffffffffffff167fddf252ad1be2c89b69c2b068fc378daa952ba7f163c4a11628f55a4df523b3ef60405160405180910390a45050565b8173ffffffffffffffffffffffffffffffffffffffff166001600083815260200190815260200160002060009054906101000a900473ffffffffffffffffffffffffffffffffffffffff1673ffffffffffffffffffffffffffffffffffffffff16146040518060400160405280600681526020017f3030333030370000000000000000000000000000000000000000000000000000815250906132ce576040517f08c379a00000000000000000000000000000000000000000000000000000000081526004016132c59190614085565b60405180910390fd5b506001600082815260200190815260200160002060006101000a81549073ffffffffffffffffffffffffffffffffffffffff021916905560006008600083815260200190815260200160002054905060006001600760008673ffffffffffffffffffffffffffffffffffffffff1673ffffffffffffffffffffffffffffffffffffffff1681526020019081526020016000208054905061336e91906141dc565b905081811461349d576000600760008673ffffffffffffffffffffffffffffffffffffffff1673ffffffffffffffffffffffffffffffffffffffff16815260200190815260200160002082815481106133f0577f4e487b7100000000000000000000000000000000000000000000000000000000600052603260045260246000fd5b9060005260206000200154905080600760008773ffffffffffffffffffffffffffffffffffffffff1673ffffffffffffffffffffffffffffffffffffffff1681526020019081526020016000208481548110613475577f4e487b7100000000000000000000000000000000000000000000000000000000600052603260045260246000fd5b9060005260206000200181905550826008600083815260200190815260200160002081905550505b600760008573ffffffffffffffffffffffffffffffffffffffff1673ffffffffffffffffffffffffffffffffffffffff168152602001908152602001600020805480613512577f4e487b7100000000000000000000000000000000000000000000000000000000600052603160045260246000fd5b6001900381819060005260206000200160009055905550505050565b600073ffffffffffffffffffffffffffffffffffffffff166001600083815260200190815260200160002060009054906101000a900473ffffffffffffffffffffffffffffffffffffffff1673ffffffffffffffffffffffffffffffffffffffff16146040518060400160405280600681526020017f303033303036000000000000000000000000000000000000000000000000000081525090613608576040517f08c379a00000000000000000000000000000000000000000000000000000000081526004016135ff9190614085565b60405180910390fd5b50816001600083815260200190815260200160002060006101000a81548173ffffffffffffffffffffffffffffffffffffffff021916908373ffffffffffffffffffffffffffffffffffffffff160217905550600760008373ffffffffffffffffffffffffffffffffffffffff1673ffffffffffffffffffffffffffffffffffffffff1681526020019081526020016000208190806001815401808255809150506001900390600052602060002001600090919091909150556001600760008473ffffffffffffffffffffffffffffffffffffffff1673ffffffffffffffffffffffffffffffffffffffff1681526020019081526020016000208054905061371091906141dc565b60086000838152602001908152602001600020819055505050565b80600073ffffffffffffffffffffffffffffffffffffffff166001600083815260200190815260200160002060009054906101000a900473ffffffffffffffffffffffffffffffffffffffff1673ffffffffffffffffffffffffffffffffffffffff1614156040518060400160405280600681526020017f303033303032000000000000000000000000000000000000000000000000000081525090613807576040517f08c379a00000000000000000000000000000000000000000000000000000000081526004016137fe9190614085565b60405180910390fd5b5060006001600084815260200190815260200160002060009054906101000a900473ffffffffffffffffffffffffffffffffffffffff16905061384983612d65565b6138538184612e06565b82600073ffffffffffffffffffffffffffffffffffffffff168273ffffffffffffffffffffffffffffffffffffffff167fddf252ad1be2c89b69c2b068fc378daa952ba7f163c4a11628f55a4df523b3ef60405160405180910390a4505050565b8280546138c0906142b7565b90600052602060002090601f0160209004810192826138e25760008555613929565b82601f106138fb57805160ff1916838001178555613929565b82800160010185558215613929579182015b8281111561392857825182559160200191906001019061390d565b5b5090506139369190613964565b5090565b60405180608001604052806000815260200160008152602001606081526020016000151581525090565b5b8082111561397d576000816000905550600101613965565b5090565b6000813590506139908161440b565b92915050565b6000813590506139a581614422565b92915050565b6000813590506139ba81614439565b92915050565b6000815190506139cf81614439565b92915050565b60008083601f8401126139e757600080fd5b8235905067ffffffffffffffff811115613a0057600080fd5b602083019150836001820283011115613a1857600080fd5b9250929050565b600081359050613a2e81614450565b92915050565b600060208284031215613a4657600080fd5b6000613a5484828501613981565b91505092915050565b60008060408385031215613a7057600080fd5b6000613a7e85828601613981565b9250506020613a8f85828601613981565b9150509250929050565b600080600060608486031215613aae57600080fd5b6000613abc86828701613981565b9350506020613acd86828701613981565b9250506040613ade86828701613a1f565b9150509250925092565b600080600080600060808688031215613b0057600080fd5b6000613b0e88828901613981565b9550506020613b1f88828901613981565b9450506040613b3088828901613a1f565b935050606086013567ffffffffffffffff811115613b4d57600080fd5b613b59888289016139d5565b92509250509295509295909350565b60008060408385031215613b7b57600080fd5b6000613b8985828601613981565b9250506020613b9a85828601613996565b9150509250929050565b60008060408385031215613bb757600080fd5b6000613bc585828601613981565b9250506020613bd685828601613a1f565b9150509250929050565b600060208284031215613bf257600080fd5b6000613c00848285016139ab565b91505092915050565b600060208284031215613c1b57600080fd5b6000613c29848285016139c0565b91505092915050565b600060208284031215613c4457600080fd5b6000613c5284828501613a1f565b91505092915050565b60008060408385031215613c6e57600080fd5b6000613c7c85828601613a1f565b9250506020613c8d85828601613a1f565b9150509250929050565b6000613ca38383613e77565b905092915050565b613cb481614210565b82525050565b6000613cc582614109565b613ccf8185614137565b935083602082028501613ce1856140e4565b8060005b85811015613d1d5784840389528151613cfe8582613c97565b9450613d098361412a565b925060208a01995050600181019050613ce5565b50829750879550505050505092915050565b613d3881614222565b82525050565b613d4781614222565b82525050565b6000613d5882614114565b613d628185614148565b9350613d72818560208601614284565b613d7b816143fa565b840191505092915050565b6000613d9182614114565b613d9b8185614159565b9350613dab818560208601614284565b613db4816143fa565b840191505092915050565b6000613dca8261411f565b613dd4818561416a565b9350613de4818560208601614284565b613ded816143fa565b840191505092915050565b60008154613e05816142b7565b613e0f818661417b565b94506001821660008114613e2a5760018114613e3b57613e6e565b60ff19831686528186019350613e6e565b613e44856140f4565b60005b83811015613e6657815481890152600182019150602081019050613e47565b838801955050505b50505092915050565b6000608083016000830151613e8f6000860182613f3d565b506020830151613ea26020860182613f3d565b5060408301518482036040860152613eba8282613d4d565b9150506060830151613ecf6060860182613d2f565b508091505092915050565b6000608083016000830151613ef26000860182613f3d565b506020830151613f056020860182613f3d565b5060408301518482036040860152613f1d8282613d4d565b9150506060830151613f326060860182613d2f565b508091505092915050565b613f468161427a565b82525050565b613f558161427a565b82525050565b613f6c613f678261427a565b614332565b82525050565b6000613f7e8285613df8565b9150613f8a8284613f5b565b6020820191508190509392505050565b6000613fa68284613f5b565b60208201915081905092915050565b6000613fc18285613f5b565b602082019150613fd18284613f5b565b6020820191508190509392505050565b6000602082019050613ff66000830184613cab565b92915050565b60006080820190506140116000830187613cab565b61401e6020830186613cab565b61402b6040830185613f4c565b818103606083015261403d8184613d86565b905095945050505050565b600060208201905081810360008301526140628184613cba565b905092915050565b600060208201905061407f6000830184613d3e565b92915050565b6000602082019050818103600083015261409f8184613dbf565b905092915050565b600060208201905081810360008301526140c18184613eda565b905092915050565b60006020820190506140de6000830184613f4c565b92915050565b6000819050602082019050919050565b60008190508160005260206000209050919050565b600081519050919050565b600081519050919050565b600081519050919050565b6000602082019050919050565b600082825260208201905092915050565b600082825260208201905092915050565b600082825260208201905092915050565b600082825260208201905092915050565b600081905092915050565b60006141918261427a565b915061419c8361427a565b9250827fffffffffffffffffffffffffffffffffffffffffffffffffffffffffffffffff038211156141d1576141d061436d565b5b828201905092915050565b60006141e78261427a565b91506141f28361427a565b9250828210156142055761420461436d565b5b828203905092915050565b600061421b8261425a565b9050919050565b60008115159050919050565b60007fffffffff0000000000000000000000000000000000000000000000000000000082169050919050565b600073ffffffffffffffffffffffffffffffffffffffff82169050919050565b6000819050919050565b60005b838110156142a2578082015181840152602081019050614287565b838111156142b1576000848401525b50505050565b600060028204905060018216806142cf57607f821691505b602082108114156142e3576142e26143cb565b5b50919050565b60006142f48261427a565b91507fffffffffffffffffffffffffffffffffffffffffffffffffffffffffffffffff8214156143275761432661436d565b5b600182019050919050565b6000819050919050565b60006143478261427a565b91506143528361427a565b9250826143625761436161439c565b5b828206905092915050565b7f4e487b7100000000000000000000000000000000000000000000000000000000600052601160045260246000fd5b7f4e487b7100000000000000000000000000000000000000000000000000000000600052601260045260246000fd5b7f4e487b7100000000000000000000000000000000000000000000000000000000600052602260045260246000fd5b6000601f19601f8301169050919050565b61441481614210565b811461441f57600080fd5b50565b61442b81614222565b811461443657600080fd5b50565b6144428161422e565b811461444d57600080fd5b50565b6144598161427a565b811461446457600080fd5b5056fea2646970667358221220670513aec1f3ba13500f96ebced1339f9f045cddad059b5c1bc581a03d75fe4664736f6c63430008000033",
  "immutableReferences": {},
  "source": "// SPDX-License-Identifier: MIT\npragma solidity 0.8.0;\n\nimport \"./tokens/nf-token-metadata.sol\";\nimport \"./tokens/nf-token-enumerable.sol\";\nimport \"./ownership/ownable.sol\";\n\n\n/**\n * @dev This is an example contract implementation of NFToken with enumerable and metadata\n * extensions.\n */\ncontract CryptoRobotsCore is\n  NFTokenEnumerable,\n  NFTokenMetadata,\n  Ownable\n{\n\n  struct Robot {\n    uint id;\n    uint generation;\n    bytes gene;\n    bool active;\n  }\n\n  mapping(uint256 => Robot) internal robots;\n  uint internal nextId;\n\n  /**\n   * @dev Contract constructor.\n   * @param _name A descriptive name for a collection of NFTs.\n   * @param _symbol An abbreviated name for NFTokens.\n   * @param _baseURI base uri\n   */\n  constructor(\n    string memory _name,\n    string memory _symbol,\n    string memory _baseURI\n  )\n  {\n    nftName = _name;\n    nftSymbol = _symbol;\n    baseURI = _baseURI;\n  }\n\n  /**\n   * @dev Mints a new NFT. Modified\n   */\n  function mint() external onlyOwner\n  {\n    _mint(owner, nextId);\n    robots[nextId] = Robot(nextId, 1, _randomByte(1000000000), true);\n    nextId++;\n  }\n\n  function getAllRobots() external view returns(Robot[] memory) {\n    Robot[] memory _robots = new Robot[](tokens.length);\n    for(uint i = 0; i < tokens.length; i++) {\n      _robots[i] = robots[i];\n    }\n    return _robots;\n  }\n\n  function getRobotByIndex(uint _robotId) external view returns(Robot memory) {\n    return robots[_robotId];\n  }\n\n  function getAllRobotsOf(address owner) external view returns(Robot[] memory) {\n    uint256[] memory ownerTokens = ownerToIds[owner];\n    Robot[] memory _robots = new Robot[](ownerTokens.length);\n    for(uint i = 0; i < ownerTokens.length; i++) {\n      uint _tokenId = ownerTokens[i];\n      _robots[i] = robots[_tokenId];\n    }\n    return _robots;\n  }\n\n  function breed(uint robot1Id, uint robot2Id)\n    external\n    validNFToken(robot1Id)\n    validNFToken(robot2Id)\n  {\n    address tokenOwner = idToOwner[robot1Id];\n    address tokenOwner2 = idToOwner[robot2Id];\n    require(tokenOwner == msg.sender && tokenOwner2 == msg.sender, NOT_OWNER);\n    Robot storage robot1 = robots[robot1Id];\n    Robot storage robot2 = robots[robot1Id];\n    uint baseGen = robot1.generation > robot2.generation ? robot1.generation : robot2.generation;\n    // bytes gene = robot1.gene;\n    _mint(msg.sender, nextId);\n    robots[nextId] = Robot(nextId, baseGen + 1, _randomByte(1000000000), true);\n    nextId++;\n  }\n\n\n\n  /**\n   * @dev Removes a NFT from owner.\n   * @param _tokenId Which NFT we want to remove.\n   */\n  function burn(\n    uint256 _tokenId\n  )\n    external\n    onlyOwner\n  {\n    _burn(_tokenId);\n  }\n\n  /**\n   * @dev Mints a new NFT.\n   * @notice This is an internal function which should be called from user-implemented external\n   * mint function. Its purpose is to show and properly initialize data structures when using this\n   * implementation.\n   * @param _to The address that will own the minted NFT.\n   * @param _tokenId of the NFT to be minted by the msg.sender.\n   */\n  function _mint(\n    address _to,\n    uint256 _tokenId\n  )\n    internal\n    override(NFToken, NFTokenEnumerable)\n    virtual\n  {\n    NFTokenEnumerable._mint(_to, _tokenId);\n  }\n\n  /**\n   * @dev Burns a NFT.\n   * @notice This is an internal function which should be called from user-implemented external\n   * burn function. Its purpose is to show and properly initialize data structures when using this\n   * implementation. Also, note that this burn implementation allows the minter to re-mint a burned\n   * NFT.\n   * @param _tokenId ID of the NFT to be burned.\n   */\n  function _burn(\n    uint256 _tokenId\n  )\n    internal\n    override(NFTokenMetadata, NFTokenEnumerable)\n    virtual\n  {\n    robots[_tokenId].active = false;\n    NFTokenEnumerable._burn(_tokenId);\n  }\n\n  /**\n   * @dev Removes a NFT from an address.\n   * @notice Use and override this function with caution. Wrong usage can have serious consequences.\n   * @param _from Address from wich we want to remove the NFT.\n   * @param _tokenId Which NFT we want to remove.\n   */\n  function _removeNFToken(\n    address _from,\n    uint256 _tokenId\n  )\n    internal\n    override(NFToken, NFTokenEnumerable)\n  {\n    NFTokenEnumerable._removeNFToken(_from, _tokenId);\n  }\n\n  /**\n   * @dev Assignes a new NFT to an address.\n   * @notice Use and override this function with caution. Wrong usage can have serious consequences.\n   * @param _to Address to wich we want to add the NFT.\n   * @param _tokenId Which NFT we want to add.\n   */\n  function _addNFToken(\n    address _to,\n    uint256 _tokenId\n  )\n    internal\n    override(NFToken, NFTokenEnumerable)\n  {\n    NFTokenEnumerable._addNFToken(_to, _tokenId);\n  }\n\n   /**\n   *@dev Helper function that gets NFT count of owner. This is needed for overriding in enumerable\n   * extension to remove double storage(gas optimization) of owner nft count.\n   * @param _owner Address for whom to query the count.\n   * @return Number of _owner NFTs.\n   */\n  function _getOwnerNFTCount(\n    address _owner\n  )\n    internal\n    override(NFToken, NFTokenEnumerable)\n    view\n    returns (uint256)\n  {\n    return NFTokenEnumerable._getOwnerNFTCount(_owner);\n  }\n\n  function _randomByte(uint max) internal view returns(bytes memory) {\n    uint gene = uint(keccak256(abi.encodePacked(block.timestamp, block.difficulty))) % max;\n    return abi.encodePacked(gene);\n  }\n\n}\n",
  "sourcePath": "/mnt/f/Web/crypto-robots/CryptoRobots/contracts/CryptoRobotsCore.sol",
  "compiler": {
    "name": "solc",
    "version": "0.8.0+commit.c7dfd78e.Emscripten.clang"
  },
  "schemaVersion": "3.3.3",
  "updatedAt": "2021-01-28T10:56:52.005Z",
  "devdoc": {
    "details": "This is an example contract implementation of NFToken with enumerable and metadata extensions.",
    "kind": "dev",
    "methods": {
      "approve(address,uint256)": {
        "details": "Set or reaffirm the approved address for an NFT. This function can be changed to payable.",
        "params": {
          "_approved": "Address to be approved for the given NFT ID.",
          "_tokenId": "ID of the token to be approved."
        }
      },
      "balanceOf(address)": {
        "details": "Returns the number of NFTs owned by `_owner`. NFTs assigned to the zero address are considered invalid, and this function throws for queries about the zero address.",
        "params": {
          "_owner": "Address for whom to query the balance."
        },
        "returns": {
          "_0": "Balance of _owner."
        }
      },
      "burn(uint256)": {
        "details": "Removes a NFT from owner.",
        "params": {
          "_tokenId": "Which NFT we want to remove."
        }
      },
      "constructor": {
        "details": "Contract constructor.",
        "params": {
          "_baseURI": "base uri",
          "_name": "A descriptive name for a collection of NFTs.",
          "_symbol": "An abbreviated name for NFTokens."
        }
      },
      "getApproved(uint256)": {
        "details": "Get the approved address for a single NFT.",
        "params": {
          "_tokenId": "ID of the NFT to query the approval of."
        },
        "returns": {
          "_0": "Address that _tokenId is approved for."
        }
      },
      "isApprovedForAll(address,address)": {
        "details": "Checks if `_operator` is an approved operator for `_owner`.",
        "params": {
          "_operator": "The address that acts on behalf of the owner.",
          "_owner": "The address that owns the NFTs."
        },
        "returns": {
          "_0": "True if approved for all, false otherwise."
        }
      },
      "mint()": {
        "details": "Mints a new NFT. Modified"
      },
      "name()": {
        "details": "Returns a descriptive name for a collection of NFTokens.",
        "returns": {
          "_name": "Representing name."
        }
      },
      "ownerOf(uint256)": {
        "details": "Returns the address of the owner of the NFT. NFTs assigned to zero address are considered invalid, and queries about them do throw.",
        "params": {
          "_tokenId": "The identifier for an NFT."
        },
        "returns": {
          "_owner": "Address of _tokenId owner."
        }
      },
      "safeTransferFrom(address,address,uint256)": {
        "details": "Transfers the ownership of an NFT from one address to another address. This function can be changed to payable.",
        "params": {
          "_from": "The current owner of the NFT.",
          "_to": "The new owner.",
          "_tokenId": "The NFT to transfer."
        }
      },
      "safeTransferFrom(address,address,uint256,bytes)": {
        "details": "Transfers the ownership of an NFT from one address to another address. This function can be changed to payable.",
        "params": {
          "_data": "Additional data with no specified format, sent in call to `_to`.",
          "_from": "The current owner of the NFT.",
          "_to": "The new owner.",
          "_tokenId": "The NFT to transfer."
        }
      },
      "setApprovalForAll(address,bool)": {
        "details": "Enables or disables approval for a third party (\"operator\") to manage all of `msg.sender`'s assets. It also emits the ApprovalForAll event.",
        "params": {
          "_approved": "True if the operators is approved, false to revoke approval.",
          "_operator": "Address to add to the set of authorized operators."
        }
      },
      "supportsInterface(bytes4)": {
        "details": "Function to check which interfaces are suported by this contract.",
        "params": {
          "_interfaceID": "Id of the interface."
        },
        "returns": {
          "_0": "True if _interfaceID is supported, false otherwise."
        }
      },
      "symbol()": {
        "details": "Returns an abbreviated name for NFTokens.",
        "returns": {
          "_symbol": "Representing symbol."
        }
      },
      "tokenByIndex(uint256)": {
        "details": "Returns NFT ID by its index.",
        "params": {
          "_index": "A counter less than `totalSupply()`."
        },
        "returns": {
          "_0": "Token id."
        }
      },
      "tokenOfOwnerByIndex(address,uint256)": {
        "details": "returns the n-th NFT ID from a list of owner's tokens.",
        "params": {
          "_index": "Index number representing n-th token in owner's list of tokens.",
          "_owner": "Token owner's address."
        },
        "returns": {
          "_0": "Token id."
        }
      },
      "tokenURI(uint256)": {
        "details": "A distinct URI (RFC 3986) for a given NFT.",
        "params": {
          "_tokenId": "Id for which we want uri."
        },
        "returns": {
          "_0": "URI of _tokenId."
        }
      },
      "totalSupply()": {
        "details": "Returns the count of all existing NFTokens.",
        "returns": {
          "_0": "Total supply of NFTs."
        }
      },
      "transferFrom(address,address,uint256)": {
        "details": "Throws unless `msg.sender` is the current owner, an authorized operator, or the approved address for this NFT. Throws if `_from` is not the current owner. Throws if `_to` is the zero address. Throws if `_tokenId` is not a valid NFT. This function can be changed to payable.",
        "params": {
          "_from": "The current owner of the NFT.",
          "_to": "The new owner.",
          "_tokenId": "The NFT to transfer."
        }
      },
      "transferOwnership(address)": {
        "details": "Allows the current owner to transfer control of the contract to a newOwner.",
        "params": {
          "_newOwner": "The address to transfer ownership to."
        }
      }
    },
    "version": 1
  },
  "userdoc": {
    "kind": "user",
    "methods": {
      "approve(address,uint256)": {
        "notice": "The zero address indicates there is no approved address. Throws unless `msg.sender` is the current NFT owner, or an authorized operator of the current owner."
      },
      "getApproved(uint256)": {
        "notice": "Throws if `_tokenId` is not a valid NFT."
      },
      "safeTransferFrom(address,address,uint256)": {
        "notice": "This works identically to the other function with an extra data parameter, except this function just sets data to \"\""
      },
      "safeTransferFrom(address,address,uint256,bytes)": {
        "notice": "Throws unless `msg.sender` is the current owner, an authorized operator, or the approved address for this NFT. Throws if `_from` is not the current owner. Throws if `_to` is the zero address. Throws if `_tokenId` is not a valid NFT. When transfer is complete, this function checks if `_to` is a smart contract (code size > 0). If so, it calls `onERC721Received` on `_to` and throws if the return value is not `bytes4(keccak256(\"onERC721Received(address,uint256,bytes)\"))`."
      },
      "setApprovalForAll(address,bool)": {
        "notice": "This works even if sender doesn't own any tokens at the time."
      },
      "transferFrom(address,address,uint256)": {
        "notice": "The caller is responsible to confirm that `_to` is capable of receiving NFTs or else they maybe be permanently lost."
      }
    },
    "version": 1
  }
}