{
  "contractName": "NFTokenMock",
  "abi": [
    {
      "anonymous": false,
      "inputs": [
        {
          "indexed": true,
          "internalType": "address",
          "name": "_owner",
          "type": "address"
        },
        {
          "indexed": true,
          "internalType": "address",
          "name": "_approved",
          "type": "address"
        },
        {
          "indexed": true,
          "internalType": "uint256",
          "name": "_tokenId",
          "type": "uint256"
        }
      ],
      "name": "Approval",
      "type": "event"
    },
    {
      "anonymous": false,
      "inputs": [
        {
          "indexed": true,
          "internalType": "address",
          "name": "_owner",
          "type": "address"
        },
        {
          "indexed": true,
          "internalType": "address",
          "name": "_operator",
          "type": "address"
        },
        {
          "indexed": false,
          "internalType": "bool",
          "name": "_approved",
          "type": "bool"
        }
      ],
      "name": "ApprovalForAll",
      "type": "event"
    },
    {
      "anonymous": false,
      "inputs": [
        {
          "indexed": true,
          "internalType": "address",
          "name": "previousOwner",
          "type": "address"
        },
        {
          "indexed": true,
          "internalType": "address",
          "name": "newOwner",
          "type": "address"
        }
      ],
      "name": "OwnershipTransferred",
      "type": "event"
    },
    {
      "anonymous": false,
      "inputs": [
        {
          "indexed": true,
          "internalType": "address",
          "name": "_from",
          "type": "address"
        },
        {
          "indexed": true,
          "internalType": "address",
          "name": "_to",
          "type": "address"
        },
        {
          "indexed": true,
          "internalType": "uint256",
          "name": "_tokenId",
          "type": "uint256"
        }
      ],
      "name": "Transfer",
      "type": "event"
    },
    {
      "inputs": [],
      "name": "CANNOT_TRANSFER_TO_ZERO_ADDRESS",
      "outputs": [
        {
          "internalType": "string",
          "name": "",
          "type": "string"
        }
      ],
      "stateMutability": "view",
      "type": "function"
    },
    {
      "inputs": [],
      "name": "NOT_CURRENT_OWNER",
      "outputs": [
        {
          "internalType": "string",
          "name": "",
          "type": "string"
        }
      ],
      "stateMutability": "view",
      "type": "function"
    },
    {
      "inputs": [
        {
          "internalType": "address",
          "name": "_approved",
          "type": "address"
        },
        {
          "internalType": "uint256",
          "name": "_tokenId",
          "type": "uint256"
        }
      ],
      "name": "approve",
      "outputs": [],
      "stateMutability": "nonpayable",
      "type": "function"
    },
    {
      "inputs": [
        {
          "internalType": "address",
          "name": "_owner",
          "type": "address"
        }
      ],
      "name": "balanceOf",
      "outputs": [
        {
          "internalType": "uint256",
          "name": "",
          "type": "uint256"
        }
      ],
      "stateMutability": "view",
      "type": "function"
    },
    {
      "inputs": [
        {
          "internalType": "uint256",
          "name": "_tokenId",
          "type": "uint256"
        }
      ],
      "name": "getApproved",
      "outputs": [
        {
          "internalType": "address",
          "name": "",
          "type": "address"
        }
      ],
      "stateMutability": "view",
      "type": "function"
    },
    {
      "inputs": [
        {
          "internalType": "address",
          "name": "_owner",
          "type": "address"
        },
        {
          "internalType": "address",
          "name": "_operator",
          "type": "address"
        }
      ],
      "name": "isApprovedForAll",
      "outputs": [
        {
          "internalType": "bool",
          "name": "",
          "type": "bool"
        }
      ],
      "stateMutability": "view",
      "type": "function"
    },
    {
      "inputs": [],
      "name": "owner",
      "outputs": [
        {
          "internalType": "address",
          "name": "",
          "type": "address"
        }
      ],
      "stateMutability": "view",
      "type": "function"
    },
    {
      "inputs": [
        {
          "internalType": "uint256",
          "name": "_tokenId",
          "type": "uint256"
        }
      ],
      "name": "ownerOf",
      "outputs": [
        {
          "internalType": "address",
          "name": "_owner",
          "type": "address"
        }
      ],
      "stateMutability": "view",
      "type": "function"
    },
    {
      "inputs": [
        {
          "internalType": "address",
          "name": "_from",
          "type": "address"
        },
        {
          "internalType": "address",
          "name": "_to",
          "type": "address"
        },
        {
          "internalType": "uint256",
          "name": "_tokenId",
          "type": "uint256"
        }
      ],
      "name": "safeTransferFrom",
      "outputs": [],
      "stateMutability": "nonpayable",
      "type": "function"
    },
    {
      "inputs": [
        {
          "internalType": "address",
          "name": "_from",
          "type": "address"
        },
        {
          "internalType": "address",
          "name": "_to",
          "type": "address"
        },
        {
          "internalType": "uint256",
          "name": "_tokenId",
          "type": "uint256"
        },
        {
          "internalType": "bytes",
          "name": "_data",
          "type": "bytes"
        }
      ],
      "name": "safeTransferFrom",
      "outputs": [],
      "stateMutability": "nonpayable",
      "type": "function"
    },
    {
      "inputs": [
        {
          "internalType": "address",
          "name": "_operator",
          "type": "address"
        },
        {
          "internalType": "bool",
          "name": "_approved",
          "type": "bool"
        }
      ],
      "name": "setApprovalForAll",
      "outputs": [],
      "stateMutability": "nonpayable",
      "type": "function"
    },
    {
      "inputs": [
        {
          "internalType": "bytes4",
          "name": "_interfaceID",
          "type": "bytes4"
        }
      ],
      "name": "supportsInterface",
      "outputs": [
        {
          "internalType": "bool",
          "name": "",
          "type": "bool"
        }
      ],
      "stateMutability": "view",
      "type": "function"
    },
    {
      "inputs": [
        {
          "internalType": "address",
          "name": "_from",
          "type": "address"
        },
        {
          "internalType": "address",
          "name": "_to",
          "type": "address"
        },
        {
          "internalType": "uint256",
          "name": "_tokenId",
          "type": "uint256"
        }
      ],
      "name": "transferFrom",
      "outputs": [],
      "stateMutability": "nonpayable",
      "type": "function"
    },
    {
      "inputs": [
        {
          "internalType": "address",
          "name": "_newOwner",
          "type": "address"
        }
      ],
      "name": "transferOwnership",
      "outputs": [],
      "stateMutability": "nonpayable",
      "type": "function"
    },
    {
      "inputs": [
        {
          "internalType": "address",
          "name": "_to",
          "type": "address"
        },
        {
          "internalType": "uint256",
          "name": "_tokenId",
          "type": "uint256"
        }
      ],
      "name": "mint",
      "outputs": [],
      "stateMutability": "nonpayable",
      "type": "function"
    }
  ],
  "bytecode": "0x608060405234801561001057600080fd5b5060016000806301ffc9a760e01b7bffffffffffffffffffffffffffffffffffffffffffffffffffffffff1916815260200190815260200160002060006101000a81548160ff02191690831515021790555060016000806380ac58cd60e01b7bffffffffffffffffffffffffffffffffffffffffffffffffffffffff1916815260200190815260200160002060006101000a81548160ff02191690831515021790555033600560006101000a81548173ffffffffffffffffffffffffffffffffffffffff021916908373ffffffffffffffffffffffffffffffffffffffff160217905550612784806101036000396000f3fe608060405234801561001057600080fd5b50600436106100f55760003560e01c806370a0823111610097578063b88d4fde11610066578063b88d4fde14610282578063e985e9c51461029e578063f2fde38b146102ce578063f3fe3bc3146102ea576100f5565b806370a08231146101fa578063860d248a1461022a5780638da5cb5b14610248578063a22cb46514610266576100f5565b806323b872dd116100d357806323b872dd1461017657806340c10f191461019257806342842e0e146101ae5780636352211e146101ca576100f5565b806301ffc9a7146100fa578063081812fc1461012a578063095ea7b31461015a575b600080fd5b610114600480360381019061010f9190612370565b610308565b60405161012191906124f1565b60405180910390f35b610144600480360381019061013f91906123c2565b61036f565b604051610151919061248a565b60405180910390f35b610174600480360381019061016f9190612334565b61048a565b005b610190600480360381019061018b9190612229565b61086d565b005b6101ac60048036038101906101a79190612334565b610cbf565b005b6101c860048036038101906101c39190612229565b610d96565b005b6101e460048036038101906101df91906123c2565b610db6565b6040516101f1919061248a565b60405180910390f35b610214600480360381019061020f91906121c4565b610e9c565b604051610221919061252e565b60405180910390f35b610232610f56565b60405161023f919061250c565b60405180910390f35b610250610f8f565b60405161025d919061248a565b60405180910390f35b610280600480360381019061027b91906122f8565b610fb5565b005b61029c60048036038101906102979190612278565b6110b2565b005b6102b860048036038101906102b391906121ed565b611109565b6040516102c591906124f1565b60405180910390f35b6102e860048036038101906102e391906121c4565b61119d565b005b6102f26113cf565b6040516102ff919061250c565b60405180910390f35b6000806000837bffffffffffffffffffffffffffffffffffffffffffffffffffffffff19167bffffffffffffffffffffffffffffffffffffffffffffffffffffffff1916815260200190815260200160002060009054906101000a900460ff169050919050565b600081600073ffffffffffffffffffffffffffffffffffffffff166001600083815260200190815260200160002060009054906101000a900473ffffffffffffffffffffffffffffffffffffffff1673ffffffffffffffffffffffffffffffffffffffff1614156040518060400160405280600681526020017f30303330303200000000000000000000000000000000000000000000000000008152509061044d576040517f08c379a0000000000000000000000000000000000000000000000000000000008152600401610444919061250c565b60405180910390fd5b506002600084815260200190815260200160002060009054906101000a900473ffffffffffffffffffffffffffffffffffffffff16915050919050565b8060006001600083815260200190815260200160002060009054906101000a900473ffffffffffffffffffffffffffffffffffffffff1690503373ffffffffffffffffffffffffffffffffffffffff168173ffffffffffffffffffffffffffffffffffffffff1614806105835750600460008273ffffffffffffffffffffffffffffffffffffffff1673ffffffffffffffffffffffffffffffffffffffff16815260200190815260200160002060003373ffffffffffffffffffffffffffffffffffffffff1673ffffffffffffffffffffffffffffffffffffffff16815260200190815260200160002060009054906101000a900460ff165b6040518060400160405280600681526020017f3030333030330000000000000000000000000000000000000000000000000000815250906105fa576040517f08c379a00000000000000000000000000000000000000000000000000000000081526004016105f1919061250c565b60405180910390fd5b5082600073ffffffffffffffffffffffffffffffffffffffff166001600083815260200190815260200160002060009054906101000a900473ffffffffffffffffffffffffffffffffffffffff1673ffffffffffffffffffffffffffffffffffffffff1614156040518060400160405280600681526020017f3030333030320000000000000000000000000000000000000000000000000000815250906106d7576040517f08c379a00000000000000000000000000000000000000000000000000000000081526004016106ce919061250c565b60405180910390fd5b5060006001600086815260200190815260200160002060009054906101000a900473ffffffffffffffffffffffffffffffffffffffff1690508073ffffffffffffffffffffffffffffffffffffffff168673ffffffffffffffffffffffffffffffffffffffff1614156040518060400160405280600681526020017f3030333030380000000000000000000000000000000000000000000000000000815250906107b7576040517f08c379a00000000000000000000000000000000000000000000000000000000081526004016107ae919061250c565b60405180910390fd5b50856002600087815260200190815260200160002060006101000a81548173ffffffffffffffffffffffffffffffffffffffff021916908373ffffffffffffffffffffffffffffffffffffffff160217905550848673ffffffffffffffffffffffffffffffffffffffff168273ffffffffffffffffffffffffffffffffffffffff167f8c5be1e5ebec7d5bd14f71427d1e84f3dd0314c0f7b2291e5b200ac8c7c3b92560405160405180910390a4505050505050565b8060006001600083815260200190815260200160002060009054906101000a900473ffffffffffffffffffffffffffffffffffffffff1690503373ffffffffffffffffffffffffffffffffffffffff168173ffffffffffffffffffffffffffffffffffffffff16148061093e57503373ffffffffffffffffffffffffffffffffffffffff166002600084815260200190815260200160002060009054906101000a900473ffffffffffffffffffffffffffffffffffffffff1673ffffffffffffffffffffffffffffffffffffffff16145b806109cf5750600460008273ffffffffffffffffffffffffffffffffffffffff1673ffffffffffffffffffffffffffffffffffffffff16815260200190815260200160002060003373ffffffffffffffffffffffffffffffffffffffff1673ffffffffffffffffffffffffffffffffffffffff16815260200190815260200160002060009054906101000a900460ff165b6040518060400160405280600681526020017f303033303034000000000000000000000000000000000000000000000000000081525090610a46576040517f08c379a0000000000000000000000000000000000000000000000000000000008152600401610a3d919061250c565b60405180910390fd5b5082600073ffffffffffffffffffffffffffffffffffffffff166001600083815260200190815260200160002060009054906101000a900473ffffffffffffffffffffffffffffffffffffffff1673ffffffffffffffffffffffffffffffffffffffff1614156040518060400160405280600681526020017f303033303032000000000000000000000000000000000000000000000000000081525090610b23576040517f08c379a0000000000000000000000000000000000000000000000000000000008152600401610b1a919061250c565b60405180910390fd5b5060006001600086815260200190815260200160002060009054906101000a900473ffffffffffffffffffffffffffffffffffffffff1690508673ffffffffffffffffffffffffffffffffffffffff168173ffffffffffffffffffffffffffffffffffffffff16146040518060400160405280600681526020017f303033303037000000000000000000000000000000000000000000000000000081525090610c02576040517f08c379a0000000000000000000000000000000000000000000000000000000008152600401610bf9919061250c565b60405180910390fd5b50600073ffffffffffffffffffffffffffffffffffffffff168673ffffffffffffffffffffffffffffffffffffffff1614156040518060400160405280600681526020017f303033303031000000000000000000000000000000000000000000000000000081525090610cab576040517f08c379a0000000000000000000000000000000000000000000000000000000008152600401610ca2919061250c565b60405180910390fd5b50610cb68686611408565b50505050505050565b600560009054906101000a900473ffffffffffffffffffffffffffffffffffffffff1673ffffffffffffffffffffffffffffffffffffffff163373ffffffffffffffffffffffffffffffffffffffff16146040518060400160405280600681526020017f303138303031000000000000000000000000000000000000000000000000000081525090610d87576040517f08c379a0000000000000000000000000000000000000000000000000000000008152600401610d7e919061250c565b60405180910390fd5b50610d9282826114bd565b5050565b610db1838383604051806020016040528060008152506116ab565b505050565b60006001600083815260200190815260200160002060009054906101000a900473ffffffffffffffffffffffffffffffffffffffff169050600073ffffffffffffffffffffffffffffffffffffffff168173ffffffffffffffffffffffffffffffffffffffff1614156040518060400160405280600681526020017f303033303032000000000000000000000000000000000000000000000000000081525090610e96576040517f08c379a0000000000000000000000000000000000000000000000000000000008152600401610e8d919061250c565b60405180910390fd5b50919050565b60008073ffffffffffffffffffffffffffffffffffffffff168273ffffffffffffffffffffffffffffffffffffffff1614156040518060400160405280600681526020017f303033303031000000000000000000000000000000000000000000000000000081525090610f45576040517f08c379a0000000000000000000000000000000000000000000000000000000008152600401610f3c919061250c565b60405180910390fd5b50610f4f82611c79565b9050919050565b6040518060400160405280600681526020017f303138303032000000000000000000000000000000000000000000000000000081525081565b600560009054906101000a900473ffffffffffffffffffffffffffffffffffffffff1681565b80600460003373ffffffffffffffffffffffffffffffffffffffff1673ffffffffffffffffffffffffffffffffffffffff16815260200190815260200160002060008473ffffffffffffffffffffffffffffffffffffffff1673ffffffffffffffffffffffffffffffffffffffff16815260200190815260200160002060006101000a81548160ff0219169083151502179055508173ffffffffffffffffffffffffffffffffffffffff163373ffffffffffffffffffffffffffffffffffffffff167f17307eab39ab6107e8899845ad3d59bd9653f200f220920489ca2b5937696c31836040516110a691906124f1565b60405180910390a35050565b61110285858585858080601f016020809104026020016040519081016040528093929190818152602001838380828437600081840152601f19601f820116905080830192505050505050506116ab565b5050505050565b6000600460008473ffffffffffffffffffffffffffffffffffffffff1673ffffffffffffffffffffffffffffffffffffffff16815260200190815260200160002060008373ffffffffffffffffffffffffffffffffffffffff1673ffffffffffffffffffffffffffffffffffffffff16815260200190815260200160002060009054906101000a900460ff16905092915050565b600560009054906101000a900473ffffffffffffffffffffffffffffffffffffffff1673ffffffffffffffffffffffffffffffffffffffff163373ffffffffffffffffffffffffffffffffffffffff16146040518060400160405280600681526020017f303138303031000000000000000000000000000000000000000000000000000081525090611265576040517f08c379a000000000000000000000000000000000000000000000000000000000815260040161125c919061250c565b60405180910390fd5b50600073ffffffffffffffffffffffffffffffffffffffff168173ffffffffffffffffffffffffffffffffffffffff1614156040518060400160405280600681526020017f30313830303200000000000000000000000000000000000000000000000000008152509061130e576040517f08c379a0000000000000000000000000000000000000000000000000000000008152600401611305919061250c565b60405180910390fd5b508073ffffffffffffffffffffffffffffffffffffffff16600560009054906101000a900473ffffffffffffffffffffffffffffffffffffffff1673ffffffffffffffffffffffffffffffffffffffff167f8be0079c531659141344cd1fd0a4f28419497f9722a3daafe3b4186f6b6457e060405160405180910390a380600560006101000a81548173ffffffffffffffffffffffffffffffffffffffff021916908373ffffffffffffffffffffffffffffffffffffffff16021790555050565b6040518060400160405280600681526020017f303138303031000000000000000000000000000000000000000000000000000081525081565b60006001600083815260200190815260200160002060009054906101000a900473ffffffffffffffffffffffffffffffffffffffff16905061144982611cc2565b6114538183611d63565b61145d8383611f06565b818373ffffffffffffffffffffffffffffffffffffffff168273ffffffffffffffffffffffffffffffffffffffff167fddf252ad1be2c89b69c2b068fc378daa952ba7f163c4a11628f55a4df523b3ef60405160405180910390a4505050565b600073ffffffffffffffffffffffffffffffffffffffff168273ffffffffffffffffffffffffffffffffffffffff1614156040518060400160405280600681526020017f303033303031000000000000000000000000000000000000000000000000000081525090611565576040517f08c379a000000000000000000000000000000000000000000000000000000000815260040161155c919061250c565b60405180910390fd5b50600073ffffffffffffffffffffffffffffffffffffffff166001600083815260200190815260200160002060009054906101000a900473ffffffffffffffffffffffffffffffffffffffff1673ffffffffffffffffffffffffffffffffffffffff16146040518060400160405280600681526020017f303033303036000000000000000000000000000000000000000000000000000081525090611640576040517f08c379a0000000000000000000000000000000000000000000000000000000008152600401611637919061250c565b60405180910390fd5b5061164b8282611f06565b808273ffffffffffffffffffffffffffffffffffffffff16600073ffffffffffffffffffffffffffffffffffffffff167fddf252ad1be2c89b69c2b068fc378daa952ba7f163c4a11628f55a4df523b3ef60405160405180910390a45050565b8160006001600083815260200190815260200160002060009054906101000a900473ffffffffffffffffffffffffffffffffffffffff1690503373ffffffffffffffffffffffffffffffffffffffff168173ffffffffffffffffffffffffffffffffffffffff16148061177c57503373ffffffffffffffffffffffffffffffffffffffff166002600084815260200190815260200160002060009054906101000a900473ffffffffffffffffffffffffffffffffffffffff1673ffffffffffffffffffffffffffffffffffffffff16145b8061180d5750600460008273ffffffffffffffffffffffffffffffffffffffff1673ffffffffffffffffffffffffffffffffffffffff16815260200190815260200160002060003373ffffffffffffffffffffffffffffffffffffffff1673ffffffffffffffffffffffffffffffffffffffff16815260200190815260200160002060009054906101000a900460ff165b6040518060400160405280600681526020017f303033303034000000000000000000000000000000000000000000000000000081525090611884576040517f08c379a000000000000000000000000000000000000000000000000000000000815260040161187b919061250c565b60405180910390fd5b5083600073ffffffffffffffffffffffffffffffffffffffff166001600083815260200190815260200160002060009054906101000a900473ffffffffffffffffffffffffffffffffffffffff1673ffffffffffffffffffffffffffffffffffffffff1614156040518060400160405280600681526020017f303033303032000000000000000000000000000000000000000000000000000081525090611961576040517f08c379a0000000000000000000000000000000000000000000000000000000008152600401611958919061250c565b60405180910390fd5b5060006001600087815260200190815260200160002060009054906101000a900473ffffffffffffffffffffffffffffffffffffffff1690508773ffffffffffffffffffffffffffffffffffffffff168173ffffffffffffffffffffffffffffffffffffffff16146040518060400160405280600681526020017f303033303037000000000000000000000000000000000000000000000000000081525090611a40576040517f08c379a0000000000000000000000000000000000000000000000000000000008152600401611a37919061250c565b60405180910390fd5b50600073ffffffffffffffffffffffffffffffffffffffff168773ffffffffffffffffffffffffffffffffffffffff1614156040518060400160405280600681526020017f303033303031000000000000000000000000000000000000000000000000000081525090611ae9576040517f08c379a0000000000000000000000000000000000000000000000000000000008152600401611ae0919061250c565b60405180910390fd5b50611af48787611408565b611b138773ffffffffffffffffffffffffffffffffffffffff166120c6565b15611c6f5760008773ffffffffffffffffffffffffffffffffffffffff1663150b7a02338b8a8a6040518563ffffffff1660e01b8152600401611b5994939291906124a5565b602060405180830381600087803b158015611b7357600080fd5b505af1158015611b87573d6000803e3d6000fd5b505050506040513d601f19601f82011682018060405250810190611bab9190612399565b905063150b7a0260e01b7bffffffffffffffffffffffffffffffffffffffffffffffffffffffff1916817bffffffffffffffffffffffffffffffffffffffffffffffffffffffff1916146040518060400160405280600681526020017f303033303035000000000000000000000000000000000000000000000000000081525090611c6c576040517f08c379a0000000000000000000000000000000000000000000000000000000008152600401611c63919061250c565b60405180910390fd5b50505b5050505050505050565b6000600360008373ffffffffffffffffffffffffffffffffffffffff1673ffffffffffffffffffffffffffffffffffffffff168152602001908152602001600020549050919050565b600073ffffffffffffffffffffffffffffffffffffffff166002600083815260200190815260200160002060009054906101000a900473ffffffffffffffffffffffffffffffffffffffff1673ffffffffffffffffffffffffffffffffffffffff1614611d60576002600082815260200190815260200160002060006101000a81549073ffffffffffffffffffffffffffffffffffffffff02191690555b50565b8173ffffffffffffffffffffffffffffffffffffffff166001600083815260200190815260200160002060009054906101000a900473ffffffffffffffffffffffffffffffffffffffff1673ffffffffffffffffffffffffffffffffffffffff16146040518060400160405280600681526020017f303033303037000000000000000000000000000000000000000000000000000081525090611e3c576040517f08c379a0000000000000000000000000000000000000000000000000000000008152600401611e33919061250c565b60405180910390fd5b506001600360008473ffffffffffffffffffffffffffffffffffffffff1673ffffffffffffffffffffffffffffffffffffffff16815260200190815260200160002054611e8991906125d7565b600360008473ffffffffffffffffffffffffffffffffffffffff1673ffffffffffffffffffffffffffffffffffffffff168152602001908152602001600020819055506001600082815260200190815260200160002060006101000a81549073ffffffffffffffffffffffffffffffffffffffff02191690555050565b600073ffffffffffffffffffffffffffffffffffffffff166001600083815260200190815260200160002060009054906101000a900473ffffffffffffffffffffffffffffffffffffffff1673ffffffffffffffffffffffffffffffffffffffff16146040518060400160405280600681526020017f303033303036000000000000000000000000000000000000000000000000000081525090611fe0576040517f08c379a0000000000000000000000000000000000000000000000000000000008152600401611fd7919061250c565b60405180910390fd5b50816001600083815260200190815260200160002060006101000a81548173ffffffffffffffffffffffffffffffffffffffff021916908373ffffffffffffffffffffffffffffffffffffffff1602179055506001600360008473ffffffffffffffffffffffffffffffffffffffff1673ffffffffffffffffffffffffffffffffffffffff1681526020019081526020016000205461207f9190612581565b600360008473ffffffffffffffffffffffffffffffffffffffff1673ffffffffffffffffffffffffffffffffffffffff168152602001908152602001600020819055505050565b60008060007fc5d2460186f7233c927e7db2dcc703c0e500b653ca82273b7bfad8045d85a47060001b9050833f91506000801b82141580156121085750808214155b92505050919050565b600081359050612120816126f2565b92915050565b60008135905061213581612709565b92915050565b60008135905061214a81612720565b92915050565b60008151905061215f81612720565b92915050565b60008083601f84011261217757600080fd5b8235905067ffffffffffffffff81111561219057600080fd5b6020830191508360018202830111156121a857600080fd5b9250929050565b6000813590506121be81612737565b92915050565b6000602082840312156121d657600080fd5b60006121e484828501612111565b91505092915050565b6000806040838503121561220057600080fd5b600061220e85828601612111565b925050602061221f85828601612111565b9150509250929050565b60008060006060848603121561223e57600080fd5b600061224c86828701612111565b935050602061225d86828701612111565b925050604061226e868287016121af565b9150509250925092565b60008060008060006080868803121561229057600080fd5b600061229e88828901612111565b95505060206122af88828901612111565b94505060406122c0888289016121af565b935050606086013567ffffffffffffffff8111156122dd57600080fd5b6122e988828901612165565b92509250509295509295909350565b6000806040838503121561230b57600080fd5b600061231985828601612111565b925050602061232a85828601612126565b9150509250929050565b6000806040838503121561234757600080fd5b600061235585828601612111565b9250506020612366858286016121af565b9150509250929050565b60006020828403121561238257600080fd5b60006123908482850161213b565b91505092915050565b6000602082840312156123ab57600080fd5b60006123b984828501612150565b91505092915050565b6000602082840312156123d457600080fd5b60006123e2848285016121af565b91505092915050565b6123f48161260b565b82525050565b6124038161261d565b82525050565b600061241482612549565b61241e818561255f565b935061242e81856020860161267f565b612437816126e1565b840191505092915050565b600061244d82612554565b6124578185612570565b935061246781856020860161267f565b612470816126e1565b840191505092915050565b61248481612675565b82525050565b600060208201905061249f60008301846123eb565b92915050565b60006080820190506124ba60008301876123eb565b6124c760208301866123eb565b6124d4604083018561247b565b81810360608301526124e68184612409565b905095945050505050565b600060208201905061250660008301846123fa565b92915050565b600060208201905081810360008301526125268184612442565b905092915050565b6000602082019050612543600083018461247b565b92915050565b600081519050919050565b600081519050919050565b600082825260208201905092915050565b600082825260208201905092915050565b600061258c82612675565b915061259783612675565b9250827fffffffffffffffffffffffffffffffffffffffffffffffffffffffffffffffff038211156125cc576125cb6126b2565b5b828201905092915050565b60006125e282612675565b91506125ed83612675565b925082821015612600576125ff6126b2565b5b828203905092915050565b600061261682612655565b9050919050565b60008115159050919050565b60007fffffffff0000000000000000000000000000000000000000000000000000000082169050919050565b600073ffffffffffffffffffffffffffffffffffffffff82169050919050565b6000819050919050565b60005b8381101561269d578082015181840152602081019050612682565b838111156126ac576000848401525b50505050565b7f4e487b7100000000000000000000000000000000000000000000000000000000600052601160045260246000fd5b6000601f19601f8301169050919050565b6126fb8161260b565b811461270657600080fd5b50565b6127128161261d565b811461271d57600080fd5b50565b61272981612629565b811461273457600080fd5b50565b61274081612675565b811461274b57600080fd5b5056fea26469706673582212202902185df1d9da881056fff198d107df2da34fedc7df4076cbae803439a7474f64736f6c63430008000033",
  "immutableReferences": {},
  "source": "// SPDX-License-Identifier: MIT\npragma solidity 0.8.0;\n\nimport \"../../contracts/tokens/nf-token.sol\";\nimport \"../ownership/ownable.sol\";\n\n/**\n * @dev This is an example contract implementation of NFToken.\n */\ncontract NFTokenMock is\n  NFToken,\n  Ownable\n{\n\n  /**\n   * @dev Mints a new NFT.\n   * @param _to The address that will own the minted NFT.\n   * @param _tokenId of the NFT to be minted by the msg.sender.\n   */\n  function mint(\n    address _to,\n    uint256 _tokenId\n  )\n    external\n    onlyOwner\n  {\n    super._mint(_to, _tokenId);\n  }\n\n}\n",
  "sourcePath": "/mnt/f/Web/crypto-robots/CryptoRobots/contracts/mocks/nf-token-mock.sol",
  "compiler": {
    "name": "solc",
    "version": "0.8.0+commit.c7dfd78e.Emscripten.clang"
  },
  "schemaVersion": "3.3.3",
  "updatedAt": "2021-01-28T10:56:52.029Z",
  "devdoc": {
    "details": "This is an example contract implementation of NFToken.",
    "kind": "dev",
    "methods": {
      "approve(address,uint256)": {
        "details": "Set or reaffirm the approved address for an NFT. This function can be changed to payable.",
        "params": {
          "_approved": "Address to be approved for the given NFT ID.",
          "_tokenId": "ID of the token to be approved."
        }
      },
      "balanceOf(address)": {
        "details": "Returns the number of NFTs owned by `_owner`. NFTs assigned to the zero address are considered invalid, and this function throws for queries about the zero address.",
        "params": {
          "_owner": "Address for whom to query the balance."
        },
        "returns": {
          "_0": "Balance of _owner."
        }
      },
      "getApproved(uint256)": {
        "details": "Get the approved address for a single NFT.",
        "params": {
          "_tokenId": "ID of the NFT to query the approval of."
        },
        "returns": {
          "_0": "Address that _tokenId is approved for."
        }
      },
      "isApprovedForAll(address,address)": {
        "details": "Checks if `_operator` is an approved operator for `_owner`.",
        "params": {
          "_operator": "The address that acts on behalf of the owner.",
          "_owner": "The address that owns the NFTs."
        },
        "returns": {
          "_0": "True if approved for all, false otherwise."
        }
      },
      "mint(address,uint256)": {
        "details": "Mints a new NFT.",
        "params": {
          "_to": "The address that will own the minted NFT.",
          "_tokenId": "of the NFT to be minted by the msg.sender."
        }
      },
      "ownerOf(uint256)": {
        "details": "Returns the address of the owner of the NFT. NFTs assigned to zero address are considered invalid, and queries about them do throw.",
        "params": {
          "_tokenId": "The identifier for an NFT."
        },
        "returns": {
          "_owner": "Address of _tokenId owner."
        }
      },
      "safeTransferFrom(address,address,uint256)": {
        "details": "Transfers the ownership of an NFT from one address to another address. This function can be changed to payable.",
        "params": {
          "_from": "The current owner of the NFT.",
          "_to": "The new owner.",
          "_tokenId": "The NFT to transfer."
        }
      },
      "safeTransferFrom(address,address,uint256,bytes)": {
        "details": "Transfers the ownership of an NFT from one address to another address. This function can be changed to payable.",
        "params": {
          "_data": "Additional data with no specified format, sent in call to `_to`.",
          "_from": "The current owner of the NFT.",
          "_to": "The new owner.",
          "_tokenId": "The NFT to transfer."
        }
      },
      "setApprovalForAll(address,bool)": {
        "details": "Enables or disables approval for a third party (\"operator\") to manage all of `msg.sender`'s assets. It also emits the ApprovalForAll event.",
        "params": {
          "_approved": "True if the operators is approved, false to revoke approval.",
          "_operator": "Address to add to the set of authorized operators."
        }
      },
      "supportsInterface(bytes4)": {
        "details": "Function to check which interfaces are suported by this contract.",
        "params": {
          "_interfaceID": "Id of the interface."
        },
        "returns": {
          "_0": "True if _interfaceID is supported, false otherwise."
        }
      },
      "transferFrom(address,address,uint256)": {
        "details": "Throws unless `msg.sender` is the current owner, an authorized operator, or the approved address for this NFT. Throws if `_from` is not the current owner. Throws if `_to` is the zero address. Throws if `_tokenId` is not a valid NFT. This function can be changed to payable.",
        "params": {
          "_from": "The current owner of the NFT.",
          "_to": "The new owner.",
          "_tokenId": "The NFT to transfer."
        }
      },
      "transferOwnership(address)": {
        "details": "Allows the current owner to transfer control of the contract to a newOwner.",
        "params": {
          "_newOwner": "The address to transfer ownership to."
        }
      }
    },
    "version": 1
  },
  "userdoc": {
    "kind": "user",
    "methods": {
      "approve(address,uint256)": {
        "notice": "The zero address indicates there is no approved address. Throws unless `msg.sender` is the current NFT owner, or an authorized operator of the current owner."
      },
      "getApproved(uint256)": {
        "notice": "Throws if `_tokenId` is not a valid NFT."
      },
      "safeTransferFrom(address,address,uint256)": {
        "notice": "This works identically to the other function with an extra data parameter, except this function just sets data to \"\""
      },
      "safeTransferFrom(address,address,uint256,bytes)": {
        "notice": "Throws unless `msg.sender` is the current owner, an authorized operator, or the approved address for this NFT. Throws if `_from` is not the current owner. Throws if `_to` is the zero address. Throws if `_tokenId` is not a valid NFT. When transfer is complete, this function checks if `_to` is a smart contract (code size > 0). If so, it calls `onERC721Received` on `_to` and throws if the return value is not `bytes4(keccak256(\"onERC721Received(address,uint256,bytes)\"))`."
      },
      "setApprovalForAll(address,bool)": {
        "notice": "This works even if sender doesn't own any tokens at the time."
      },
      "transferFrom(address,address,uint256)": {
        "notice": "The caller is responsible to confirm that `_to` is capable of receiving NFTs or else they maybe be permanently lost."
      }
    },
    "version": 1
  }
}